S01E000061737369676E6D656E74335F4D43555F447269766572732E733139E8
S113A00000600020D5A0000043A1000099A2000038
S113A010000000000000000000000000000000003C
S113A02000000000000000000000000047A1000044
S113A030000000000000000049A1000001A400008D
S113A0404FA1000057A100005FA1000067A100001C
S113A0506FA1000077A100007FA1000087A100008C
S113A0608FA1000097A100009FA10000A7A10000FC
S113A0700DAA0000B7A10000BFA10000C7A1000005
S113A080CFA10000D7A10000DFA10000E7A10000DC
S113A090EFA10000F7A100001DA6000007A2000028
S113A0A00FA2000017A200001FA2000027A20000B8
S113A0B02FA2000037A20000A9A90000E1A8000017
S113A0C01CB5000080E0FF1F0400000084E0FF1FB7
S113A0D0E400000010B572B600F0F0FC0D4B07E090
S113A0E0186859681C000C349A6800F019F82300A9
S113A0F0094A9342F4D306E018681C0008345968EE
S113A10000F017F82300054A9342F5D362B601F034
S113A11097F8FEE7C0A00000CCA00000D4A0000087
S113A12010B5002302E010C810C104339342FAD3DF
S113A13010BD002302E0002204C004338B42FAD392
S113A1407047FEE7FEE7FEE7FEE7FEE7FEE710B531
S113A150FFF7FCFF10BD10B5FFF7F8FF10BD10B5F9
S113A160FFF7F4FF10BD10B5FFF7F0FF10BD10B5F9
S113A170FFF7ECFF10BD10B5FFF7E8FF10BD10B5F9
S113A180FFF7E4FF10BD10B5FFF7E0FF10BD10B5F9
S113A190FFF7DCFF10BD10B5FFF7D8FF10BD10B5F9
S113A1A0FFF7D4FF10BD10B5FFF7D0FF10BD10B5F9
S113A1B000F04EFC10BD10B500F05CFC10BD10B5F5
S113A1C000F06AFC10BD10B5FFF7C0FF10BD10B55C
S113A1D0FFF7BCFF10BD10B5FFF7B8FF10BD10B5F9
S113A1E0FFF7B4FF10BD10B5FFF7B0FF10BD10B5F9
S113A1F0FFF7ACFF10BD10B5FFF7A8FF10BD10B5F9
S113A200FFF7A4FF10BD10B5FFF7A0FF10BD10B5F8
S113A210FFF79CFF10BD10B5FFF798FF10BD10B5F8
S113A220FFF794FF10BD10B5FFF790FF10BD10B5F8
S113A230FFF78CFF10BD10B5FFF788FF10BD10B5F8
S113A240FFF784FF10BD10B5FFF780FF10BDFFFFBF
S113A25080B500AF00F076F80D4B1D21180000F01A
S113A26037F80C4B0521180000F032F8084B1D217B
S113A270180000F0B3FF074B0521180000F0AEFFF3
S113A280FA235B00180000F083F8C046EEE7C046EE
S113A29000F10F40C0F00F4004207146084202D084
S113A2A0EFF3098001E0EFF3088081690A88074B26
S113A2B09A4200D0FEE7023181610168012901D090
S113A2C0002100E0202101607047C046ABBE0000C1
S113A2D090B587B000AF78600A00FB1C1A700C249C
S113A2E03B19180008231A00002100F0AFFF2100D9
S113A2F07B1801225A707B680F4A944663449B0979
S113A3000E4A944663441B037B617A18FB1C19783C
S113A3107B69180000F0C4F908217B18084A1288E8
S113A3201A807A18FB1C19787B68180000F0C0F8B2
S113A330C046BD4607B090BD0010F0BF4900040000
S113A34060B3000080B500AF00F0C6FB0E4B1B6885
S113A350FA229100180000F09FFF03001A000B4B33
S113A360013A5A60094B00229A60084B1A68074B5D
S113A37004210A431A60054B1A68044B02210A435C
S113A3801A60C046BD4680BD80E0FF1F10E000E0BB
S113A39080B582B000AF0200BB1D1A80094B0022B9
S113A3A01A8000F011F8C046064B1B889BB2BA1DF8
S113A3B012889A42F8D800F015F8C046BD4602B09B
S113A3C080BDC04664E1FF1F80B500AF044B1A682E
S113A3D0034B01210A431A60C046BD4680BDC046F6
S113A3E010E000E080B500AF044B1A68034B012174
S113A3F08A431A60C046BD4680BDC04610E000E0F6
S113A40080B500AF044B1B889BB201339AB2024B58
S113A4101A80C046BD4680BD64E1FF1F80B584B08C
S113A42000AF78607B680C4A944663441B0BDAB235
S113A4300F217B1809321A70084A094BD2587B182D
S113A4401B78012199400B0004491343044A8B50A3
S113A450C046BD4604B080BD0070FBBF0070044020
S113A4603810000080B584B000AF78607B680D4A76
S113A470944663441B0BDAB20F217B1809321A701D
S113A480094A0A4BD3587A181278012191400A00DC
S113A4901340BB60BB685A1E9341DBB21800BD4633
S113A4A004B080BD0070FBBF007004403810000091
S113A4B080B584B000AFF8607A600B23FB180A1CE7
S113A4C01A70FB682C4A934213D0FB682B4A9342C0
S113A4D00FD0FB682A4A93420BD0FB68294A934267
S113A4E007D0FB68284A934203D0284B180000F099
S113A4F09CFE0B23FB181B781E2B03D9244B18003E
S113A50000F093FEFB685B69FB6800225A617B687C
S113A5101B78002B2CD07B685B78002B07D07B68E2
S113A5205B78012B03D01B4B180000F07EFE7B6888
S113A5301B78002B07D07B681B78012B03D0164BAC
S113A540180000F072FE7B681B781A000B217B1840
S113A5501B789A4013001A00FB685A617B685B7889
S113A5601A007B181B789A4013001A00FB681A60C3
S113A570C046BD4604B080BD00F00F4040F00F401F
S113A58080F00F40C0F00F4000F10F4064B30000B2
S113A59080B30000A0B30000D8B3000080B582B03F
S113A5A000AF78600A00FB1C1A707B68144A93425F
S113A5B013D07B68134A93420FD07B68124A9342AC
S113A5C00BD07B68114A934207D07B68104A9342B0
S113A5D003D0104B180000F028FEFB1C1B781E2B28
S113A5E003D90D4B180000F020FEFB1C1B78012240
S113A5F09A407B68DA60C046BD4602B080BDC04662
S113A60000F00F4040F00F4080F00F40C0F00F40CA
S113A61000F10F400CB4000028B4000080B500AF76
S113A620104A86235B00D358012B08D10E4B1B68BC
S113A630002098470B4A86235B000121D150094A28
S113A6408E235B00D358012B08D1074B1B680120D4
S113A6509847044A8E235B000121D150C046BD4671
S113A66080BDC0460070034084E0FF1F80B582B007
S113A67000AF0200FB1D1A70FB1D1B787F2B09D84D
S113A680FB1D1B781A001F231A40044B0121914023
S113A6900A001A60C046BD4602B080BD00E100E079
S113A6A080B584B000AFF8607A600B23FB180A1CF5
S113A6B01A70FB687C4A934213D0FB687B4A93422E
S113A6C00FD0FB687A4A93420BD0FB68794A9342D5
S113A6D007D0FB68784A934203D0784B180000F007
S113A6E0A4FD0B23FB181B781E2B03D9744B1800F5
S113A6F000F09BFD7B681B78002B0BD07B681B78DC
S113A700022B07D07B681B78032B03D06D4B1800FA
S113A71000F08BFD7B685B78072B03D96A4B18002C
S113A72000F083FDFB681800FFF778FE0B203B1850
S113A7301A78FB689200D3583A1812786349194082
S113A740FB689200D1507B685B78002B00D1A7E0B6
S113A7503B181A78FB689200D1587B685B781A0220
S113A760E023DB0013403A1812781943FB68920087
S113A770D1503B181A78FB689200D1587B681B783B
S113A7805B08DBB25B00022213403A1812781943CB
S113A790FB689200D1503B181A78FB689200D1589C
S113A7A07B681B781A00012313403A181278194366
S113A7B0FB689200D1507B689B78002B23D07B6888
S113A7C09B78012B1FD07B689B78022B1BD07B6866
S113A7D09B78032B17D07B689B78082B13D07B685E
S113A7E09B78092B0FD07B689B780A2B0BD07B6856
S113A7F09B780B2B07D07B689B780C2B03D0344BB6
S113A800180000F012FD0B203B181A78FB68920028
S113A810D1587B689B781A04F0231B0313403A1821
S113A82012781943FB689200D1507B689B78002B07
S113A83036D03B181A78FB689200D1587B689B7815
S113A8401A04F0231B0313403A1812781943FB68C7
S113A8509200D1507B685B68002B03D11D4B18001C
S113A86000F0E3FCFB68124A934203D0FB68114AF0
S113A870934206D17B685A68174B1A601F20FFF772
S113A880F5FEFB680A4A934203D0FB68094A9342E7
S113A89006D17B685A68114B1A601E20FFF7E6FE4A
S113A8A0C046BD4604B080BD0090044000A00440F2
S113A8B000B0044000C0044000D0044048B400008C
S113A8C064B400007CB40000A4B40000FCF8F0FF01
S113A8D0CCB40000F4B4000088E0FF1F8CE0FF1F3C
S113A8E080B582B000AF2D4B1800FFF7BBFD031EEF
S113A8F024D0FB1D00221A701CE0284AA023D35840
S113A900FA1D1278012191400A0013400DD0FB1D5D
S113A9101B78224901229A401300A0228B50204B1D
S113A9201B68FA1D127810009847FB1D1A78FB1D4E
S113A93001321A70FB1D1B781F2BDED9194B18002E
S113A940FFF790FD031E24D0FB1D00221A701CE0AB
S113A950144AA023D358FA1D1278012191400A0009
S113A96013400DD0FB1D1B780E4901229A401300A1
S113A970A0228B500A4B1B68FA1D127810009847CE
S113A980FB1D1A78FB1D01321A70FB1D1B781F2B4F
S113A990DED9C046BD4602B080BDC04600B004400A
S113A9A088E0FF1F00C0044080B582B000AFFB1DEB
S113A9B000221A701CE0134AA023D358FA1D1278FF
S113A9C0012191400A0013400DD0FB1D1B780D4955
S113A9D001229A401300A0228B500B4B1B68FA1DD6
S113A9E0127810009847FB1D1A78FB1D01321A706B
S113A9F0FB1D1B781F2BDED9C046C046BD4602B0E6
S113AA0080BDC046009004408CE0FF1F80B500AFBD
S113AA100C4B1B79DBB21A00202313400FD0094BD7
S113AA20DB79DAB2084B1A70084B1B68002B06D08E
S113AA30064B1B68044A1278D2B210009847C046ED
S113AA40BD4680BD00A0064066E1FF1F90E0FF1FE9
S113AA5080B500AF044B1A68044B1B680448190006
S113AA609047C046BD4680BD98E0FF1F94E0FF1F9D
S113AA7000A0064080B500AF044B1A68044B5B6825
S113AA80044819009047C046BD4680BDA8E0FF1F9A
S113AA909CE0FF1F00B0064080B500AF044B1A686D
S113AAA0044B9B68044819009047C046BD4680BDCE
S113AAB0A8E0FF1F9CE0FF1F00C0064080B500AF68
S113AAC0044A88235B010021D15000F0B4FBC04646
S113AAD0BD4680BD0070044080B582B000AF894B94
S113AAE01B78DBB21A00C023134000D0C3E0854BAF
S113AAF05B79DBB21A004023134000D099E0814B0C
S113AB001B78DBB21A00042313403AD17E4B7B60DE
S113AB107C4B5B78DBB21A00302313401ED0794B98
S113AB201B78DBB21A0038231340302B06D0382BA5
S113AB3009D1BB1CC022D2001A8019E0BB1CA02280
S113AB40D2001A8014E06F4B1B78DBB2DB080722BB
S113AB50134020229A40BB1C1A8009E0694B1B78E1
S113AB60DBB2DB080722134001229A40BB1C1A8087
S113AB70BB1C1B881900786800F08EFB03007B6007
S113AB8002E080231B027B605E4BDB78DBB21A00A1
S113AB90E0231340E02B47D000D99DE0C02B3ED0EA
S113ABA000D999E0A02B34D000D995E0802B2AD08D
S113ABB000D991E0602B1FD000D98DE0402B14D038
S113ABC000D989E0002B02D0202B07D084E07A68DA
S113ABD013009B009B18DB017B607EE07A68130006
S113ABE09B009B181B027B6077E07A6813001B01B3
S113ABF09B1ADB017B6070E07A6813009B009B1852
S113AC005B027B6069E07B68B722920053437B6000
S113AC1063E07B68B722D20053437B605DE07B68CE
S113AC203A4A53437B6058E07B68394A53437B601C
S113AC3053E0344B1B79DBB21A001F2313409AB242
S113AC40BB1C01321A80BB1C1B8819002E4800F063
S113AC5023FB03007B602B4B5B79DBB21A001F23C1
S113AC6013409AB2BB1C18321A80BB1C1A887B682A
S113AC7053437B6031E0234B1B78DBB21A00C023C3
S113AC801340402B1DD11F4B5B78DBB21A0001230C
S113AC90134003D180231B027B601EE0194B1B7AF7
S113ACA0DBB25B080722134001229A40BB1C1A80C6
S113ACB0BB1C1B881900174800F0EEFA03007B60E8
S113ACC00BE0104B1B78DBB21A00C0231340802B1F
S113ACD013D10D4B7B6000E0C0460F4A0F4BD35895
S113ACE01B0F0F22134001331900786800F0D4FAC7
S113ACF003001A000A4B1A6000E0C046BD4602B0C9
S113AD0080BDC0460040064000127A00950800004D
S113AD10710B000000093D00007004404410000065
S113AD2080E0FF1F70B5184C18492200002000F085
S113AD308BF8802380225B0000212000D20000F0E9
S113AD402FF8134C134D22002900012000F07CF849
S113AD50802380225B0000212000D20000F020F834
S113AD600D4B1B68022B0DDD0C4C29002200022028
S113AD7000F06AF880238022002120005B00D200CA
S113AD8000F00EF870BDC046B0E0FF1F18B500001B
S113AD90ECE0FF1F1AB5000014B5000028E1FF1F06
S113ADA0F0B5C56804000120AE070CD080208000F7
S113ADB0824213D08020C000824205D0802040000F
S113ADC082420BD0FF38F0BD21000123243115430A
S113ADD0002021612160E361E560F4E7024F5E1E1B
S113ADE00120BE42F3D9EEE7FEFFFF00030003217A
S113ADF010B51A000B4219D1114C13681149591896
S113AE009943214219D0DCB2511C002C0BD0FF24F1
S113AE102402911C234206D0FF2109040B40591E31
S113AE208B41D318D91C0130081A05E001335C1E8C
S113AE302478002CDDD1101A10BD0432DDE7C046A1
S113AE4080808080FFFEFEFEF7B50D0001901000AB
S113AE50140000F033F82B78722B1CD0772B1DD004
S113AE60612B26D1144A593B0220691C03278446CE
S113AE700426012508782B2813D0622816D0E26016
S113AE80019A62611B0704D502220021200000F010
S113AE9063F82000FEBD00230122E5E7042302221B
S113AEA0E2E760463A4303430131E3E732432B438D
S113AEB0FAE70024EDE7C04602800000F0B5C5685B
S113AEC004004769066989B0AB0720D02B0716D464
S113AED000F022F8380000F02EFA2B0502D53000DD
S113AEE000F0B8F90B4BAD0DAD059D4207D1202202
S113AEF06846216A00F02EFA684600F0C1F93C2247
S113AF000021200000F0A2F9002009B0F0BD0120CA
S113AF104042FAE7000080ADF8B5002812D000F0F6
S113AF20B7F805002800F8BD38006043084BC01886
S113AF3000F0AEF8002801D001256D420134A6428C
S113AF40F2DCEFE7034B040005003C271E68F6E73C
S113AF50B0E0FF1F14B50000F7B54369C66801935C
S113AF60364B04000D0000921E420BD0019800F0F5
S113AF70E8F9071E06D1009B012B06D0022B2DD029
S113AF80002B06D002273800FEBD200000F05AF83E
S113AF902D18002DF6DBB30404D52368E26A9A4227
S113AFA000D2E362A369AB420EDCE16A22688A4202
S113AFB000D20A002169D0180091401AA84203DB8C
S113AFC0206B1918A94228DC20231E430023A56204
S113AFD0A36063601A4B1E40E660D4E7019800F05A
S113AFE0ADF9E268002804DA802313430127E36003
S113AFF0C9E7E16A2368994200D90B00A1695B188B
S113B00021695B1A920603D5A26A934200DA1300FF
S113B010834200DA0300ED18BBE7EB1AB50701D54C
S113B020181AA060F00703D50099521A9A1A6260A0
S113B030009AD118202321609E43CBE7030010001F
S113B040BFCFF7FFC16802008B0705D12122012081
S113B0500E4B40421A60704720230B4009030AD567
S113B060002B02D0806A0138F5E793690068C018A4
S113B0701369C01AF7E7002B01D0806AEBE7036875
S113B080816900695B18181AE5E7C046ACE0FF1F48
S113B090C36870B503221E0004001640134211D089
S113B0A09B0611D5856A00F079F8E368094A200007
S113B0B01340E36000F010F800220600290020008D
S113B0C0FFF74AFF300070BD83690568ED18036916
S113B0D0ED1AEAE7FFCFFFFF70B50400134AE368F7
S113B0E005691A400168C06AE26082221A40022A95
S113B0F002D00120404270BDDB030CD5814200D256
S113B10001008D4209D10023094AA360E368E56286
S113B11013402560E3600020EDE722002800491B6E
S113B12000F008F80028EED0E3E7C046FFFFF7FF81
S113B130FFFFFEFFF7B5D5680F00140056690190B4
S113B140EB0205D5102330001D4300F0F7F8A06191
S113B150104B1D420FD03000A16900F0F8F8002810
S113B16006DA80230120E26840421343E3600FE0E3
S113B170094B1D40E5603A003000019900F0EDF8FC
S113B1804300A2695B08FB1AD318A3610028E8D125
S113B190FEBDC04610000200EFFFFDFF2022C36881
S113B1A010B59343C3608269836A04009A420CD049
S113B1B0FFF792FFE268074B1A4010231343E36042
S113B1C0A36AA3612369E3622360E368024A13402C
S113B1D0E36010BDEFCFFFFFBFBFFFFF80B584B0BA
S113B1E000AF78600A00FB1C1A700F23FB180122C1
S113B1F01A707B685B69FA1C1278012191400A007D
S113B2001A40FB1C1B78DA401300012B06D1FB1CEF
S113B2101A787B6811001800FFF7C0F90F23FB1898
S113B2201B781800BD4604B080BD80B582B000AF65
S113B2307860C046FDE780B500AFC046BD4680BD1E
S113B24010B5FFF76FFDFFF703F810BD10B500F060
S113B2505DF810BD10B5002811D080210C384905C7
S113B26001608268002A0AD013688B4207D14368C0
S113B270546803331B19436093688360F1E710BD7E
S113B28010B50400FFF7B2FD0100200000F05CF8E7
S113B29010BD03000B4321D4002931D00122D20771
S113B2A0030901E0090112099942FBD9430801E0AD
S113B2B0490052089942FBD900E04908401A07D3D3
S113B2C05241FAD301461046704749084018F7D254
S113B2D09218FAD34018014610467047CB0F00D09D
S113B2E04942021000D54042534008B5FFF7D4FF4D
S113B2F00CBC521000D34042002A00D549421847E2
S113B300F446002000F001F8604770478446043A90
S113B31009D3830707D109060B0A19430B0C1943F8
S113B320043A02C0FCD2043203D001700130013A65
S113B330FBD16046704701204042704701204042E3
S113B340704701204042704701204042704701206D
S113B3504042704701204042704710007047FFFF91
S113B3600101FFFF6770696F2E633A3133203A2081
S113B37049535F4750494F284750494F78290000A7
S113B3806770696F2E633A3134203A2049535F471E
S113B39050494F5F50494E2870696E2900000000E3
S113B3A06770696F2E633A3230203A2049535F4701
S113B3B050494F5F50494E5F56414C554528636F85
S113B3C06E6669672D3E696E697469616C5F76614A
S113B3D06C756529000000006770696F2E633A324E
S113B3E031203A2049535F4750494F5F4449524501
S113B3F04354494F4E28636F6E6669672D3E6469F6
S113B40072656374696F6E2900FFFFFF6770696F6F
S113B4102E633A3633203A2049535F4750494F2828
S113B4204750494F782900006770696F2E633A3698
S113B43034203A2049535F4750494F5F50494E28C2
S113B44070696E2900FFFFFF706F72742E633A34C7
S113B45034203A2049535F504F525428504F52548D
S113B46078290000706F72742E633A3435203A20C4
S113B47049535F50494E2870696E2900706F727489
S113B4802E633A3436203A2049535F50554C4C5F72
S113B4905459504528636F6E6669672D3E70756C0C
S113B4A06C290000706F72742E633A3437203A208E
S113B4B049535F4D55585F5459504528636F6E6624
S113B4C069672D3E6D75782900000000706F7274F5
S113B4D02E633A3633203A2049535F495251435F31
S113B4E05459504528636F6E6669672D3E697271C1
S113B4F063290000706F72742E633A3730203A204B
S113B500636F6E6669672D3E7043616C6C62616344
S10FB5106B00FFFF0300000072007700D6
S107B51C00004001E6
S903A0D587
